:100000000B200021007F22000700038D14AF03FFA7
:1000100010CF11EF1AFF1BFF1C001D101E001FF058
:10002000200021002A002B012C012DC02E002F00C2
:100030003000310022FF23FF24002510260027F086
:100040002800290032003301340035DF3600370044
:1000500038003900B1A0104F116F03FC03FF10CF1F
:1000600011EF1AFF1BFF1C001D101E001FF02000C7
:1000700021002A002B012C002DDF2E002F00300044
:10008000310022FF23FF24002510260027F028003E
:10009000290032003301340135C036003700380002
:1000A0003900B1A0104F116F03FC3E5149453E008D
:1000B0000000427F40000061514946002141454B0C
:1000C00031001814127F10002745454539003C4A7D
:1000D0004949300001710905030036494949360094
:1000E000064949291E00313030303030300032307E
:1000F000303030303000B8D0EEE0F0E047E2D6D01B
:10010000F0E0E6EEA0E0AA0FAA0FAA0FAA0FAA0F2E
:10011000B0E02AD04ED0F0E0EEEEA0E0AA0FAA0F99
:10012000AA0FAA0FAA0FB1E01FD043D047D1ECE528
:10013000F0E047E2BBD0F0E0EEEEA0E0AA0FAA0F9D
:10014000AA0FAA0FAA0FB0E00FD033D0F0E0E6EE6E
:10015000A0E0AA0FAA0FAA0FAA0FAA0FB1E004D01D
:1001600028D02CD1C9CF089598E7B6D0C5D010E8D3
:10017000C6D010E2C4D010E8C2D010E0C0D010E861
:10018000BED011E2BCD010E8BAD01A2FB8D010E817
:10019000B6D01FE7B4D010E8B2D012E2B0D010E869
:1001A000AED01B2FACD010E8AAD017E0A8D09DD0BD
:1001B0000895C895202D203019F003D03196F9CF3D
:1001C0000895EF93FF93F0E0EAEA2053022F200F07
:1001D000200F200F200F200F0027E20FF01F98E7BD
:1001E00036E07AD089D010E48AD0149188D03A953C
:1001F00011F03196FACF79D0FF91EF91089598E7F9
:100200000ED0C0E0D4E068D077D010E478D01127C9
:1002100076D0C150D040D9F768D001D0089598E782
:100220005BD06AD010E86BD010E269D010E867D0DC
:1002300010E065D010E863D011E261D010E85FD023
:1002400010E05DD010E85BD01FE759D010E857D020
:1002500012E255D010E853D010E051D010E84FD042
:1002600017E04DD042D0089598E7E0E0F0E03491F7
:10027000319632D041D010E842D0149140D03A9516
:1002800011F03196F8CF31D0BADFEAE0F0E03491E6
:10029000319622D031D010E832D0149130D03A9536
:1002A00011F03196F8CF21D0BADF08952F933F9304
:1002B00090EC24913196349107D04A9511F0319603
:1002C000F8CF3F912F91089507D016D0122F17D055
:1002D000132F15D00AD00895B39BFECFBC9AC498B3
:1002E0000000BB9AC39800000895BB98C398B39BC5
:1002F000FECFBC98C4980895192F01D008956F7B44
:1003000058E017FF03C0BC98C49803C0BC9AC498B7
:100310000000BB98C398B39BFECF00000000000014
:1003200000000000000000000000000000000000CD
:1003300000000000000000000000000000000000BD
:1003400000000000BB9AC3980000000000000000FD
:10035000000000000000000000000000000000009D
:10036000000000000000000000000000000000008D
:1003700000000000110F5A9521F6BC98C498BB9854
:10038000C398B39BFECFC49B6064000000000000D4
:10039000000000000000000000000000000000005D
:1003A000000000000000000000000000000000004D
:1003B00000000000BB9AC398000008950AD009D03D
:1003C00008D007D006D005D004D003D002D001D089
:1003D00008950AD009D008D007D006D005D004D09F
:1003E00003D002D001D008958FEF8F9384E68A95D1
:0A03F000F1F78F918A95C9F708957F
:00000001FF
